:020000040800F2
:1000000000800120E11C0008411800084318000886
:1000100045180008471800084918000800000000AB
:100020000000000000000000000000004B18000865
:100030004D180008000000004F1800085118000873
:10004000311D0008311D0008311D0008311D000858
:10005000311D0008311D0008311D0008411A00083B
:10006000311D0008311D0008311D0008311D000838
:10007000311D0008311D0008311D0008311D000828
:10008000311D0008311D0008311D0008311D000818
:10009000311D0008311D0008311D0008311D000808
:1000A000311D0008311D0008311D0008311D0008F8
:1000B000311D0008311D0008311D0008311D0008E8
:1000C000311D0008311D0008311D0008311D0008D8
:1000D000311D0008B919000889180008311D0008F1
:1000E000311D0008311D0008311D0008311D0008B8
:1000F000311D0008311D0008311D0008311D0008A8
:10010000311D0008311D0008311D0008311D000897
:10011000311D0008311D0008311D0008311D000887
:10012000311D0008311D0008311D0008311D000877
:10013000311D0008311D0008311D0008311D000867
:10014000311D0008311D0008311D0008311D000857
:10015000311D0008311D0008311D0008311D000847
:10016000311D0008311D0008311D0008311D000837
:10017000311D0008311D00080000000000000000D3
:08018000311D0008311D0008CB
:1001C00010B5054C237833B9044B13B10448AFF391
:1001D00000800123237010BDC80C00200000000027
:1001E000D09D000808B5034B1BB103490348AFF38A
:1001F000008008BD00000000CC0C0020D09D00084D
:1002000053B94AB9002908BF00281CBF4FF0FF317D
:100210004FF0FF3000F074B9ADF1080C6DE904CE79
:1002200000F006F8DDF804E0DDE9022304B07047D1
:100230002DE9F047089E0D4604468846002B4DD117
:100240008A42944668D9B2FA82F252B101FA02F3B4
:10025000C2F1200120FA01F10CFA02FC41EA030884
:1002600094404FEA1C45210CB8FBF5FE1FFA8CF7B1
:1002700005FB1E8341EA03430EFB07F199420BD9AC
:100280001CEB03030EF1FF3080F01E81994240F217
:100290001B81AEF1020E63445B1AA4B2B3FBF5F00E
:1002A00005FB103344EA034400FB07F7A7420AD9D1
:1002B0001CEB040400F1FF3380F00881A74240F2F8
:1002C000058164440238E41B40EA0E4000211EB15F
:1002D000D4400023C6E90043BDE8F0878B4208D92B
:1002E000002E00F0EE800021C6E900050846BDE8BA
:1002F000F087B3FA83F100294AD1AB4202D382429C
:1003000000F2F980841A65EB030301209846002E61
:10031000E2D0C6E90048DFE702B9FFDEB2FA82F2B6
:10032000002A40F09180A1EB0C054FEA1C471FFA10
:100330008CFE0121B5FBF7F307FB1350250C45EAB2
:1003400000450EFB03F0A84208D91CEB050503F19C
:10035000FF3802D2A84200F2CB8043462D1AA4B245
:10036000B5FBF7F007FB105544EA05440EFB00FE11
:10037000A64508D91CEB040400F1FF3502D2A645BE
:1003800000F2BB802846A4EB0E0440EA03409EE73F
:10039000C1F120078B4022FA07FC4CEA030C20FA3B
:1003A00007F405FA01F31C43FD404FEA1C4900FA2B
:1003B00001F3B5FBF9F8200C1FFA8CFE09FB185568
:1003C00040EA054508FB0EF0A84202FA01F20BD9FB
:1003D0001CEB050508F1FF3A80F08880A84240F246
:1003E0008580A8F1020865442D1AA4B2B5FBF9F086
:1003F00009FB105544EA054500FB0EFEAE4508D941
:100400001CEB050500F1FF346CD2AE456AD9023809
:10041000654440EA0840A0FB0294A5EB0E05A54206
:10042000C846A64656D353D05EB1B3EB080265EB7F
:100430000E0505FA07F722FA01F3CD401F43C6E97E
:1004400000750021BDE8F087C2F1200320FA03F116
:100450000CFA02FC25FA03F395400D434FEA1C47C2
:100460001FFA8CFEB3FBF7F107FB11302B0C43EAAC
:10047000004301FB0EF0984204FA02F408D91CEB89
:10048000030301F1FF382FD298422DD9023963447A
:100490001B1AADB2B3FBF7F007FB103345EA034577
:1004A00000FB0EF3AB4208D91CEB050500F1FF3849
:1004B00016D2AB4214D902386544ED1A40EA014124
:1004C00038E73146304607E78646E5E61846FAE65D
:1004D0004B45A9D2B9EB020864EB0C0E0138A3E737
:1004E0004046EAE7204694E74146D1E7D0467BE71D
:1004F000023B654432E7084609E76444023842E7B4
:10050000704700BF00000000000000000000000075
:1005100000000000000000000000000000000000DB
:1005200000000000000000000000000000000000CB
:1005300000000000000000000000000000000000BB
:1005400090F800F06DE9024520F007016FF0000C13
:1005500010F0070491F820F040F049804FF00004BB
:100560006FF00700D1E9002391F840F000F1080096
:1005700082FA4CF2A4FA8CF283FA4CF3A2FA8CF3CE
:100580004BBBD1E9022382FA4CF200F10800A4FA35
:100590008CF283FA4CF3A2FA8CF3E3B9D1E9042389
:1005A00082FA4CF200F10800A4FA8CF283FA4CF3C0
:1005B000A2FA8CF37BB9D1E9062301F1200182FA7A
:1005C0004CF200F10800A4FA8CF283FA4CF3A2FA80
:1005D0008CF3002BC6D0002A04BF04301A4612BA8E
:1005E000B2FA82F2FDE8024500EBD2007047D1E991
:1005F000002304F00305C4F100004FEAC50514F020
:10060000040F91F840F00CFA05F562EA05021CBFF0
:1006100063EA050362464FF00004A9E7000000000A
:1006200001F0FF01102A2BDB10F0070F08D010F8A3
:10063000013B013A8B422DD010F0070F42B3F6D1A7
:10064000F0B441EA012141EA014122F007047FF0C0
:1006500000070023F0E80256083C85EA010586EA17
:10066000010685FA47F5A3FA87F586FA47F6A5FA53
:1006700087F68EB9EED1F0BC01F0FF0102F007025F
:1006800032B110F8013B013A83EA010313B1F8D10A
:100690000020704701387047002D06BF35460338EB
:1006A000073815F0010F07D1013015F4807F02BF24
:1006B000013015F4C03F0130F0BC0138704700BF75
:1006C000844641EA000313F003036DD1403A41D35D
:1006D00051F8043B40F8043B51F8043B40F8043B1C
:1006E00051F8043B40F8043B51F8043B40F8043B0C
:1006F00051F8043B40F8043B51F8043B40F8043BFC
:1007000051F8043B40F8043B51F8043B40F8043BEB
:1007100051F8043B40F8043B51F8043B40F8043BDB
:1007200051F8043B40F8043B51F8043B40F8043BCB
:1007300051F8043B40F8043B51F8043B40F8043BBB
:1007400051F8043B40F8043B51F8043B40F8043BAB
:10075000403ABDD2303211D351F8043B40F8043B4B
:1007600051F8043B40F8043B51F8043B40F8043B8B
:1007700051F8043B40F8043B103AEDD20C3205D35B
:1007800051F8043B40F8043B043AF9D2043208D053
:10079000D2071CBF11F8013B00F8013B01D30B88C5
:1007A00003806046704700BF082A13D38B078DD0A3
:1007B00010F003038AD0C3F10403D21ADB071CBF75
:1007C00011F8013B00F8013B80D331F8023B20F8DF
:1007D000023B7BE7043AD9D3013A11F8013B00F818
:1007E000013BF9D20B7803704B7843708B788370A0
:1007F0006046704781F0004102E000BF83F0004393
:1008000030B54FEA41044FEA430594EA050F08BFAB
:1008100090EA020F1FBF54EA000C55EA020C7FEA6F
:10082000645C7FEA655C00F0E2804FEA5454D4EBEC
:100830005555B8BF6D420CDD2C4480EA020281EAB6
:10084000030382EA000083EA010180EA020281EAEE
:100850000303362D88BF30BD11F0004F4FEA013140
:100860004FF4801C4CEA113102D0404261EB41014F
:1008700013F0004F4FEA03334CEA133302D05242D5
:1008800063EB430394EA050F00F0A780A4F1010491
:10089000D5F1200E0DDB02FA0EFC22FA05F28018CB
:1008A00041F1000103FA0EF2801843FA05F35941B1
:1008B0000EE0A5F120050EF1200E012A03FA0EFC30
:1008C00028BF4CF0020C43FA05F3C01851EBE3715A
:1008D00001F0004507D54FF0000EDCF1000C7EEB77
:1008E00000006EEB0101B1F5801F1BD3B1F5001FB5
:1008F0000CD349085FEA30004FEA3C0C04F10104D4
:100900004FEA445212F5800F80F09A80BCF1004FFC
:1009100008BF5FEA500C50F1000041EB045141EA7E
:10092000050130BD5FEA4C0C404141EB0101013C47
:1009300028BFB1F5801FE9D291F0000F04BF014636
:100940000020B1FA81F308BF2033A3F10B03B3F108
:1009500020020CDA0C3208DD02F1140CC2F10C0298
:1009600001FA0CF021FA02F10CE002F11402D8BFF6
:10097000C2F1200C01FA02F120FA0CFCDCBF41EAC2
:100980000C019040E41AA2BF01EB0451294330BD91
:100990006FEA04041F3C1CDA0C340EDC04F114046E
:1009A000C4F1200220FA04F001FA02F340EA030045
:1009B00021FA04F345EA030130BDC4F10C04C4F18B
:1009C000200220FA02F001FA04F340EA030029466B
:1009D00030BD21FA04F0294630BD94F0000F83F4B5
:1009E000801306BF81F480110134013D4EE77FEA98
:1009F000645C18BF7FEA655C29D094EA050F08BFE4
:100A000090EA020F05D054EA000C04BF19461046C4
:100A100030BD91EA030F1EBF0021002030BD5FEA08
:100A2000545C05D14000494128BF41F0004130BD30
:100A300014F580043CBF01F5801130BD01F0004584
:100A400045F0FE4141F470014FF0000030BD7FEAF7
:100A5000645C1ABF194610467FEA655C1CBF0B46F2
:100A6000024650EA013406BF52EA033591EA030F09
:100A700041F4002130BD00BF90F0000F04BF002101
:100A8000704730B54FF4806404F132044FF0000534
:100A90004FF0000150E700BF90F0000F04BF0021AD
:100AA000704730B54FF4806404F1320410F0004513
:100AB00048BF40424FF000013EE700BF42004FEA0E
:100AC000E2014FEA31014FEA02701FBF12F07F438B
:100AD00093F07F4F81F06051704732F07F4208BF42
:100AE000704793F07F4F04BF41F40021704730B549
:100AF0004FF4607401F0004521F000411CE700BF95
:100B000050EA010208BF704730B54FF000050AE017
:100B100050EA010208BF704730B511F0004502D518
:100B2000404261EB41014FF4806404F132045FEA1A
:100B3000915C3FF4D8AE4FF003025FEADC0C18BFC3
:100B400003325FEADC0C18BF033202EBDC02C2F1B5
:100B5000200300FA03FC20FA02F001FA03FE40EA47
:100B60000E0021FA02F11444BDE600BF70B54FF04B
:100B7000FF0C4CF4E06C1CEA11541DBF1CEA135529
:100B800094EA0C0F95EA0C0F00F0DEF82C4481EA91
:100B9000030621EA4C5123EA4C5350EA013518BFB1
:100BA00052EA033541F4801143F4801338D0A0FB9E
:100BB00002CE4FF00005E1FB02E506F00042E0FB4B
:100BC00003E54FF00006E1FB03569CF0000F18BF51
:100BD0004EF0010EA4F1FF04B6F5007F64F54074F9
:100BE00004D25FEA4E0E6D4146EB060642EAC6218C
:100BF00041EA55514FEAC52040EA5E504FEACE2EF9
:100C0000B4F1FD0C88BFBCF5E06F1ED8BEF1004FFB
:100C100008BF5FEA500E50F1000041EB045170BD77
:100C200006F0004646EA010140EA020081EA0301BB
:100C3000B4EB5C04C2BFD4EB0C0541EA045170BDB7
:100C400041F480114FF0000E013C00F3AB8014F131
:100C5000360FDEBF002001F0004170BDC4F100047A
:100C6000203C35DA0C341BDC04F11404C4F12005FB
:100C700000FA05F320FA04F001FA05F240EA020056
:100C800001F0004221F0004110EBD37021FA04F68C
:100C900042EB06015EEA430E08BF20EAD37070BD46
:100CA000C4F10C04C4F1200500FA04F320FA05F0A5
:100CB00001FA04F240EA020001F0004110EBD370A7
:100CC00041F100015EEA430E08BF20EAD37070BD17
:100CD000C4F1200500FA05F24EEA020E20FA04F3F0
:100CE00001FA05F243EA020321FA04F001F000419F
:100CF00021FA04F220EA020000EBD3705EEA430E10
:100D000008BF20EAD37070BD94F0000F0FD101F03E
:100D10000046400041EB010111F4801F08BF013C77
:100D2000F7D041EA060195F0000F18BF704703F0B5
:100D30000046520043EB030313F4801F08BF013D3C
:100D4000F7D043EA0603704794EA0C0F0CEA1355F8
:100D500018BF95EA0C0F0CD050EA410618BF52EAB2
:100D60004306D1D181EA030101F000414FF00000B8
:100D700070BD50EA410606BF1046194652EA4306C6
:100D800019D094EA0C0F02D150EA013613D195EA3A
:100D90000C0F05D152EA03361CBF104619460AD182
:100DA00081EA030101F0004141F0FE4141F470018C
:100DB0004FF0000070BD41F0FE4141F4780170BD7C
:100DC00070B54FF0FF0C4CF4E06C1CEA11541DBFE1
:100DD0001CEA135594EA0C0F95EA0C0F00F0A7F8E3
:100DE000A4EB050481EA030E52EA03354FEA013110
:100DF00000F088804FEA03334FF0805545EA131323
:100E000043EA12634FEA022245EA111545EA1065EA
:100E10004FEA00260EF000419D4208BF964244F181
:100E2000FD0404F5407402D25B084FEA3202B61AA0
:100E300065EB03055B084FEA32024FF480104FF474
:100E4000002CB6EB020E75EB030E22BFB61A7546E8
:100E500040EA0C005B084FEA3202B6EB020E75EB7B
:100E6000030E22BFB61A754640EA5C005B084FEAE3
:100E70003202B6EB020E75EB030E22BFB61A7546B0
:100E800040EA9C005B084FEA3202B6EB020E75EBBB
:100E9000030E22BFB61A754640EADC0055EA060E7C
:100EA00018D04FEA051545EA16754FEA06164FEABF
:100EB000C30343EA52734FEAC2025FEA1C1CC0D16B
:100EC00011F4801F0BD141EA00014FF000004FF0F8
:100ED000004CB6E711F4801F04BF01430020B4F1B9
:100EE000FD0C88BFBCF5E06F3FF6AFAEB5EB030C71
:100EF00004BFB6EB020C5FEA500C50F1000041EB6E
:100F0000045170BD0EF0004E4EEA113114EB5C043A
:100F1000C2BFD4EB0C0541EA045170BD41F480110D
:100F20004FF0000E013C90E645EA060E8DE60CEA15
:100F3000135594EA0C0F08BF95EA0C0F3FF43BAF32
:100F400094EA0C0F0AD150EA01347FF434AF95EAE9
:100F50000C0F7FF425AF104619462CE795EA0C0FCD
:100F600006D152EA03353FF4FDAE1046194622E79A
:100F700050EA410618BF52EA43067FF4C5AE50EA74
:100F800041047FF40DAF52EA43057FF4EBAE12E764
:100F90004FF0FF3C06E000BF4FF0010C02E000BF45
:100FA0004FF0010C4DF804CD4FEA410C7FEA6C5C28
:100FB0004FEA430C18BF7FEA6C5C1BD001B050EACB
:100FC000410C0CBF52EA430C91EA030F02BF90EAB6
:100FD000020F0020704710F1000F91EA030F58BF75
:100FE000994208BF90422CBFD8176FEAE37040F0D7
:100FF000010070474FEA410C7FEA6C5C02D150EA75
:10100000013C07D14FEA430C7FEA6C5CD6D152EA2F
:10101000033CD3D05DF8040B704700BF84461046F4
:1010200062468C461946634600E000BF01B5FFF7F3
:10103000B7FF002848BF10F1000F01BD4DF808EDC3
:10104000FFF7F4FF0CBF012000205DF808FB00BF94
:101050004DF808EDFFF7EAFF34BF012000205DF8EE
:1010600008FB00BF4DF808EDFFF7E0FF94BF01203B
:1010700000205DF808FB00BF4DF808EDFFF7CEFF3C
:1010800094BF012000205DF808FB00BF4DF808ED7B
:10109000FFF7C4FF34BF012000205DF808FB00BF4C
:1010A0004FEA410C7FEA6C5C02D150EA013C0AD164
:1010B0004FEA430C7FEA6C5C02D152EA033C02D156
:1010C0004FF0000070474FF0010070474FEA4102B7
:1010D00012F5001215D211D56FF47873B3EB62528A
:1010E00012D94FEAC12343F0004343EA505311F0B1
:1010F000004F23FA02F018BF404270474FF0000043
:10110000704750EA013005D111F0004008BF6FF080
:10111000004070474FF00000704700BF2DE9F043DA
:101120008BB0002405940694079408940994314BDD
:10113000DA6C42F08002DA64DA6C02F0800200922B
:10114000009ADA6C42F00402DA64DA6C02F004020B
:101150000192019ADA6C42F00102DA64DA6C02F070
:1011600001020292029ADA6C42F00802DA64DA6C46
:1011700002F008020392039ADA6C42F01002DA6479
:10118000DB6C03F010030493049BDFF86C900122E6
:101190000221484601F04FF8184F012240213846FD
:1011A00001F049F8164E01221146304601F043F88D
:1011B000022305930125069507944FF00308CDF807
:1011C000208005A9484600F091FE4023059306952E
:1011D0000794CDF8208005A9384600F087FE0595D4
:1011E00006950795089405A9304600F07FFE0BB0E0
:1011F000BDE8F0830010024000080048000C0048E1
:101200000010004838B5244D2846FFF799F9234CC3
:101210004FF47A7382B22946204602F06BFB6420B9
:1012200000F0D2FD1E4D2846FFF78AF94FF47A737D
:1012300082B22946204602F05DFB642000F0C4FD26
:10124000184D2846FFF77CF94FF47A7382B229468D
:10125000204602F04FFB642000F0B6FD124D2846F8
:10126000FFF76EF94FF47A7382B22946204602F0F6
:1012700041FB642000F0A8FD0C4D2846FFF760F903
:101280004FF47A7382B22946204602F033FB642081
:1012900000F09AFD38BD00BF00000020800F002044
:1012A0003C00002078000020500000206400002056
:1012B00038B5904C2046FFF743F94FF47A7382B269
:1012C00021468D4802F016FB8C4B1B78002BFBD07F
:1012D000012B11D0022B03D1894B1B78012B68D035
:1012E000884C2046FFF72CF94FF47A7382B22146DE
:1012F000814802F0FFFA38BD834D2846FFF720F9F8
:10130000824C4FF47A7382B22946204602F0F2FAF8
:10131000642000F059FD7E4D2846FFF711F94FF487
:101320007A7382B22946204602F0E4FA642000F083
:101330004BFD784D2846FFF703F94FF47A7382B2DC
:101340002946204602F0D6FA642000F03DFD724D99
:101350002846FFF7F5F84FF47A7382B22946204603
:1013600002F0C8FA642000F02FFD6C4D2846FFF70C
:10137000E7F84FF47A7382B22946204602F0BAFAAF
:10138000642000F021FDFFF73DFF002201216448A9
:1013900000F051FF634D2846FFF7D2F84FF47A73FF
:1013A00082B22946204602F0A5FA642000F00CFD26
:1013B000A1E7554C2046FFF7C3F84FF47A7382B289
:1013C0002146524802F096FA642000F0FDFC564C8B
:1013D0002046FFF7B5F84FF47A7382B221464648AB
:1013E00002F088FA514B1B78002BFBD0012B29D03F
:1013F000022B53D0494D2846FFF7A2F8434C4FF437
:101400007A7382B22946204602F074FA642000F012
:10141000DBFCFFF7F7FE00220121414800F00BFF43
:10142000404D2846FFF78CF84FF47A7382B2294674
:10143000204602F05FFA642000F0C6FC3C4B00221C
:101440001A7058E73B4D2846FFF77AF82F4C4FF4B7
:101450007A7382B22946204602F04CFA642000F0EA
:10146000B3FC2C4D2846FFF76BF84FF47A7382B229
:101470002946204602F03EFA642000F0A5FC264DE5
:101480002846FFF75DF84FF47A7382B2294620466A
:1014900002F030FA642000F097FCABE7254D2846B7
:1014A000FFF74EF8194C4FF47A7382B22946204662
:1014B00002F020FA642000F087FC1F4D2846FFF759
:1014C0003FF84FF47A7382B22946204602F012FAAE
:1014D000642000F079FC194D2846FFF731F84FF4ED
:1014E0007A7382B22946204602F004FA642000F0A2
:1014F0006BFC7FE7D0010020F80E0020EA0E0020F0
:10150000E50C0020CC02002014000020800F0020F9
:10151000F0000020180100208C00002004010020B1
:1015200000100048280000206C010020E40C00207E
:10153000EB0E0020DC00002038010020A00000207D
:10154000022800D0704770B500F01CFC104D00263A
:10155000EE6700F0F7FA0F4CE66700F0D7FA0720C5
:1015600000F09EFC2A68136843F0200313602A6889
:10157000136843F0100313602268136843F02003DC
:1015800013602268136843F01003136070BD00BF3E
:10159000800F0020F80E002072B6FEE700B597B06D
:1015A0004422002105A802F0D7FC002300930193F8
:1015B0000293039304934FF4007000F063FE18BB92
:1015C000012205924FF48033069302230F930321E7
:1015D000109111920A2212920722139214931593DA
:1015E00005A800F073FF88B90F230093032301932C
:1015F00000230293039304930221684601F074FAD6
:1016000030B917B05DF804FBFFF7C6FFFFF7C4FF62
:10161000FFF7C2FF30B587B01B4D2846FEF790FF9D
:101620001A4C4FF47A7382B22946204602F062F9CE
:10163000642000F0C9FB164801F0F5FE204601F0D9
:10164000F2FE00240194029403940494059402236E
:1016500001934FF48813029301A90E4800F046FC51
:1016600022462146072000F0D5FB072000F00AFCA7
:1016700001214FF4804000F0F1FDFFF78FFF064B92
:101680001C7007B030BD00BFEC020020F80E002037
:10169000800F002000100048EB0E002010B56420E1
:1016A00000F092FB254C2046FEF74AFF4FF47A7378
:1016B00082B22146224802F01DF9642000F084FB2A
:1016C000FFF7A0FD642000F07FFB1E4C2046FEF7D4
:1016D00037FF4FF47A7382B221461B4802F00AF9B1
:1016E0001A4B1B78002BFBD0012B02D0022B11D000
:1016F00010BD174C2046FEF723FF4FF47A7382B2D9
:1017000021460F4802F0F6F8642000F05DFBFFF779
:10171000CFFDEDE7642000F057FBFFF7C9FD0D4C4E
:101720002046FEF70DFF4FF47A7382B2214604483B
:1017300002F0E0F8FFF76EFFDAE700BF5801002083
:10174000800F002034020020F80E0020E50C00205D
:10175000C8000020B400002000B58FB000F012FBDC
:10176000FFF71CFFFFF7DAFC00F0ECF900F0CEF910
:10177000204A11680B6843F020030B60126813685D
:1017800043F0100313601C4A11680B6843F02003F8
:101790000B601268136843F010031360FFF77EFFBD
:1017A0004FF47A7000F010FB02F028FB4FF47A70CF
:1017B00000F00AFB0FE0114D114C2946204602F0C3
:1017C00032FB2B8822880F4901A802F017FC06E0A3
:1017D0000A2000F0F9FA0C4B1B78012BEBD00B4BD5
:1017E0001B78012BF4D1084B1B78022BF0D1FFF7AB
:1017F00011FFEDE7800F0020F80E0020E60C00201E
:10180000E80E0020E89D0008E50C0020EB0E00200B
:1018100082B00A4B1A6E42F001021A661A6E02F08A
:1018200001020092009A9A6D42F080529A659B6D77
:1018300003F080530193019B02B0704700100240F7
:10184000FEE7FEE7FEE7FEE7FEE7704770477047FA
:1018500008B500F0A7FA08BD08B50A46074B1B6893
:10186000DB6913F0400FF9D04FF47A730146044856
:1018700002F040F8034B01221A7008BD800F0020CF
:10188000F80E0020EB0E002030B583B000238DF859
:101890000730254B1B68DB6913F0080F0DD1224B75
:1018A0001B68DB6913F0200F14D11F4B1B68DB6929
:1018B00013F0100F26D103B030BD1B4C4FF47A73D8
:1018C00001220DF10701204602F078F82368082272
:1018D0001A62E4E74FF47A7301220DF1070112480E
:1018E00002F06CF8114B1B68FF2B06DC9DF807100B
:1018F0000F4AD15401330D4A13600B4B1B68202251
:101900001A62D2E7094D0A4C29882046FFF7A4FF46
:1019100000212960044B1B6810221A624FF4807268
:10192000204602F019FBC6E7800F0020F00E0020D1
:10193000E80D002008B51B4B1B68DB6913F0400F56
:10194000F9D090F800C0ACF13103DBB2012B0CD917
:10195000012B14D9012B1CD8134B1B78CBB9ACF13C
:10196000300C114B83F800C01AE0104A1278002A9C
:10197000EED1ACF1300C0D4B83F800C010E00C4AF6
:101980001278002AE6D1ACF1300C094B83F800C084
:1019900006E04FF47A730A460146064801F0AAFFB2
:1019A00008BD00BFF80E0020E40C0020E50C00206C
:1019B000EA0E0020800F002030B583B000238DF8A0
:1019C00007301C4B1B68DB6913F0200F07D1194B44
:1019D0001B68DB6913F0100F19D103B030BD4FF451
:1019E0007A7301220DF10701124801F0E7FF124B53
:1019F0001B68FF2B06DC9DF80710104AD1540133F9
:101A00000D4A13600B4B1B6820221A62DFE70A4D58
:101A10000A4C29882046FFF78DFF00212960054BDD
:101A20001B6810221A624FF48072204602F094FA6A
:101A3000D3E700BFF80E0020EC0E0020E80C0020D9
:101A400008B5022000F0FCFB08BD0120704708B576
:101A500002F058FA162303604FF0FF3008BD08B5B6
:101A60004FF0FF31FFF7F3FFFEE770B50C46164667
:101A7000002506E0AFF30080214601F8010B013597
:101A80000C46B542F6DB304670BD70B50C461646C6
:101A9000002504E014F8010BAFF300800135B542D6
:101AA000F8DB304670BD4FF0FF3070474FF4005305
:101AB0004B600020704701207047002070470000F5
:101AC00010B503460C4A0D490D48006840B10C485A
:101AD00000680344521A934206D8094A136010BDA5
:101AE0000748084C0460F2E702F00CFA0C2303608C
:101AF0004FF0FF30F3E700BF00800120000400003A
:101B0000F40E0020581000207047000008B50B4864
:101B10000B4B03604FF4E133436000238360C360E9
:101B200003610C2242618361C3610362436202F07C
:101B300034F800B908BDFFF72FFDFBE7F80E0020D1
:101B40000038014008B50B480B4B03604FF4E133FC
:101B5000436000238360C36003610C2242618361A0
:101B6000C3610362436202F018F800B908BDFFF7D1
:101B700013FDFBE7800F00200044004010B5ACB01F
:101B8000044600212791289129912A912B9188229E
:101B900005A802F0E1F92368384A934204D0384A94
:101BA000934236D02CB010BD0123059305A801F057
:101BB000E7F958BB334B1A6E42F480421A661A6E2C
:101BC00002F480420192019ADA6C42F00102DA6476
:101BD000DB6C03F001030293029B4FF4C063279375
:101BE000022328930024299403232A9307232B9369
:101BF00027A94FF0904000F079F922462146252090
:101C000000F008F9252000F03DF9CBE7FFF7C4FC10
:101C1000D0E70223059305A801F0B2F950BB194B98
:101C20009A6D42F400329A659A6D02F40032039282
:101C3000039ADA6C42F00102DA64DB6C03F0010310
:101C40000493049B0C2327930223289300242994B4
:101C500003232A9307232B9327A94FF0904000F0EA
:101C600045F922462146262000F0D4F8262000F02F
:101C700009F997E7FFF790FCD1E700BF0038014072
:101C8000004400400010024008B50368124A934225
:101C900003D0124A934210D008BD02F55842136E89
:101CA00023F4804313664FF4C0614FF0904000F07E
:101CB00023FA252000F0F4F8EEE702F5E632936D02
:101CC00023F4003393650C214FF0904000F014FA98
:101CD000262000F0E5F8DFE700380140004400402E
:101CE000DFF834D0FFF710FF0C480D490D4A0023F0
:101CF00002E0D458C4500433C4188C42F9D30A4AC1
:101D00000A4C002301E013600432A242FBD302F02C
:101D1000FFF8FFF721FDFEE7008001200000002012
:101D2000C80C00204CA20008C80C00205410002051
:101D3000FEE70000104B1B780BB90120704710B56F
:101D400004464FF47A70B0FBF3F30C4A1068B0FB12
:101D5000F3F000F0B7F868B90F2C01D901200AE0C0
:101D6000002221464FF0FF3000F054F8044B1C6075
:101D7000002000E0012010BD100300200C03002013
:101D80001403002010B5032000F032F80F20FFF7F5
:101D9000D1FF10B10124204610BD0446FFF738FDE5
:101DA000F9E70000034B1B78034A11680B441360EA
:101DB000704700BF1003002008100020014B186876
:101DC000704700BF0810002038B50446FFF7F6FF43
:101DD0000546B4F1FF3F02D0044B1B781C44FFF7CB
:101DE000EDFF401BA042FAD338BD00BF1003002016
:101DF000074AD36823F4E0631B041B0C000200F4C1
:101E0000E060034343F0BF6343F40033D3607047A3
:101E100000ED00E000B5194BDB68C3F30223C3F10A
:101E2000070CBCF1040F28BF4FF0040C03F1040EA3
:101E3000BEF1060F18D9033B4FF0FF3E0EFA0CFC23
:101E400021EA0C0199400EFA03F322EA0303194335
:101E500000280BDB0901C9B200F1604000F56140C8
:101E600080F800135DF804FB0023E5E700F00F00A5
:101E70000901C9B2024B1954F4E700BF00ED00E0BC
:101E800014ED00E0002807DB00F01F0240090123E9
:101E90009340024A42F82030704700BF00E100E062
:101EA00000280CDB00F01F02400901239340203082
:101EB000034A42F82030BFF34F8FBFF36F8F704754
:101EC00000E100E00138B0F1807F0BD24FF0E02359
:101ED0005861054AF02182F82310002098610722FA
:101EE0001A6170470120704700ED00E070B582B0C4
:101EF00000236EE085685E000324B44025EA0405F3
:101F0000CC68B4402C438460456825EA0C054C68D5
:101F1000C4F300149C402C4344606DE0C56A25EA7C
:101F20000C0CC4F3C0049C4044EA0C04C46269E095
:101F3000DD08083550F8256003F007044FEA840CEB
:101F40000F2404FA0CF426EA040E0C6904FA0CF4CB
:101F500044EA0E0440F825406CE0062400E000242A
:101F600004FA0EF42C430CF1020C5F4D45F82C40A2
:101F70005E4CA568D44325EA0206D1F804C01CF4DF
:101F8000801F01D042EA0506584DAE60ED6804EAB4
:101F90000506D1F804C01CF4001F01D042EA050672
:101FA000524DEE606D6804EA0506D1F804C01CF4D9
:101FB000003F01D042EA05064C4D6E602D682C4072
:101FC0004E6816F4803F01D042EA0504474A146087
:101FD00001330A6832FA03F400F083804FF0010CF9
:101FE0000CFA03FC1CEA0202F2D04C6804F0030471
:101FF000013C012C7FF67EAF4C6804F0030EBEF16D
:10200000030F8BD04C6804F00304032C0CD0C4687D
:102010005D004FF0030C0CFA05FC24EA0C0C8C68F4
:10202000AC4044EA0C04C4604C6804F00304022C85
:102030003FF47EAF04684FEA430E4FF0030C0CFAF6
:102040000EFC24EA0C0C4C6804F0030404FA0EF4B1
:1020500044EA0C0404604C6814F4403FB8D0244CAB
:10206000256E45F001052566246E04F001040194F7
:10207000019C4FEA930C0CF102051B4C54F82550BF
:1020800003F003044FEA840E0F2404FA0EF425EA49
:102090000405B0F1904F3FF462AF164CA04216D049
:1020A00004F58064A04214D004F58064A04212D0EC
:1020B00004F58064A04210D004F58064A0420ED0E4
:1020C00004F58064A0423FF448AF072448E70124A8
:1020D00046E7022444E7032442E7042440E70524BA
:1020E0003EE702B070BD00BF0000014000040140A7
:1020F0000010024000040048002331FA03F200F00F
:102100008B80F0B532E0062500E0002505FA0CFCD6
:10211000A44565D004685D004FF0030C0CFA05FC83
:1021200044EA0C0404604FEAD30E0EF1080E50F896
:102130002E4003F00705AE000F25B54024EA050444
:1021400040F82E40846824EA0C048460446824EA41
:1021500002044460C46824EA0C04C460C46A24EA2B
:102160000202C262013331FA03F254D001229A40D2
:1021700012EA0107F6D04FEA930E0EF10205274C42
:1021800054F8254003F0030C4FEA8C0C0F2505FA98
:102190000CF63440B0F1904FB7D0214DA84215D085
:1021A00005F58065A84213D005F58065A84211D0D9
:1021B00005F58065A8420FD005F58065A8420DD0D1
:1021C00005F58065A8429ED007259FE701259DE77C
:1021D00002259BE7032599E7042597E7052595E761
:1021E000104C256825EA07052560656825EA07057E
:1021F0006560E56825EA0705E560A56825EA070743
:10220000A760064F0EF1020457F8245025EA060590
:1022100047F824507EE7F0BD704700BF0000014042
:1022200000040048000401400369194201D0012064
:102230007047002070470AB1816170478162704722
:1022400008B5054B5B69034200D108BD024B5861DC
:10225000FFF776F9F9E700BF0004014008B5B0F5D3
:10226000804F03D0084600F055F808BD084600F03E
:102270006DF8FAE7024B186800F4C060704700BFC1
:1022800000700040B0F5007F0FD01F4B1B6803F4B7
:10229000C063B3F5806F34D01B4A136823F4C06366
:1022A00043F48063136000207047174B1B6803F4EE
:1022B000C063B3F5007F20D0134A136823F4C063D2
:1022C00043F400731360114B1B68322202FB03F3CB
:1022D0000F4AA2FB03239B0C013300E0013B0A4A97
:1022E000526912F4806F01D0002BF7D1064B5B6965
:1022F00013F4806F03D10020704700207047032043
:1023000070470020704700BF007000400C030020A1
:1023100083DE1B430B4A136823F0070313600A4A4A
:10232000136943F004031361012808D040BF20BFA4
:1023300020BF054A136923F004031361704730BFBF
:10234000F7E700BF0070004000ED00E00C4A1368A2
:1023500023F0070343F0010313600A4A136943F0B3
:1023600004031361012808D040BF20BF20BF054AE5
:10237000136923F004031361704730BFF7E700BF10
:102380000070004000ED00E030B583B00446204B03
:102390009B6D13F0805F0BD0FFF76CFFB0F5007FF3
:1023A00017D0802C1FD82DD0702C2DD000211BE0F1
:1023B000174DAB6D43F08053AB65AB6D03F08053AD
:1023C0000193019BFFF756FFAB6D23F08053AB6584
:1023D000E4E7802C03D9A02C03D9022104E00021DA
:1023E00002E0012100E003210A4A136823F00703F9
:1023F0000B431360136803F007038B4206D10020E0
:1024000003B030BD0221EFE70121EDE70120F7E73E
:102410000010024000200240284A9368D26802F06F
:10242000030213F00C030AD00C2B06D0042B1FD090
:10243000082B20D00020024610E0012AF6D11F4AC6
:10244000126812F0080F0CD11C4AD2F89420C2F383
:1024500003221B4951F8222043B100200C2B0DD040
:102460007047164A1268C2F30312F2E71046F5E706
:1024700014480022F2E714480022EFE70F4BDB6814
:1024800003F00303022B16D0032B00D10E4A0B4995
:10249000C868C0F30210431CC868C0F3062002FBE2
:1024A00000F0B0FBF3F0CB68C3F3416301335B0092
:1024B000B0FBF3F0D4E7034AE9E700BF00100240A5
:1024C0000C9E00080024F40000127A00002800F09E
:1024D000F182F0B583B00446964B9D6805F00C057B
:1024E000DE6806F00306036813F0100F5AD0E5B15A
:1024F0000C2D18D0A369002B00F0BB808D4A136807
:1025000043F001031360FFF759FC0746894B1B6832
:1025100013F0020F40F09A80FFF750FCC01B022816
:10252000F4D90320D1E2012EE4D1824B1B6813F0D1
:10253000020F03D0A369002B00F0BE82206A7D4BFE
:102540001B6813F0080F5BD07A4B1B6803F0F00395
:1025500098425CD8774B1A6842F008021A601A68F1
:1025600022F0F002216A0A431A605A6822F47F427C
:10257000E16942EA01225A60002D60D0FFF74CFF6A
:102580006C4B9B68C3F303136B4AD35C03F01F03CC
:10259000D8406A4B18606A4B1868FFF7CBFB0028DD
:1025A00040F09382236813F0010F00F08180082D22
:1025B00075D00C2D71D06368B3F5803F00F0978023
:1025C000B3F5A02F00F099805A4B1A6822F480329C
:1025D0001A601A6822F480221A606368002B00F0E7
:1025E0009980FFF7EBFB0746524B1B6813F4003F43
:1025F0005ED1FFF7E3FBC01B6428F5D9032064E23A
:102600004C4BD3F894301B0903F0F003A0E7FFF71D
:10261000BBFE002840F05282464B1A6842F0080286
:102620001A601A6822F0F002216A0A431A605A6896
:1026300022F47F42E16942EA01225A609EE7206A61
:10264000FFF7A2FE002899D001203EE2394B1A681C
:1026500042F008021A601A6822F0F002216A0A4366
:102660001A605A6822F47F42E16942EA01225A6004
:1026700098E7304A136823F001031360FFF79EFBCD
:1026800007462C4B1B6813F0020F8BD0FFF796FB0D
:10269000C01B0228F5D9032017E2032E8BD1254B4E
:1026A0001B6813F4003F03D06368002B00F008821E
:1026B000236813F0020F58D0042D45D00C2D41D0C3
:1026C000E368002B77D01B4A136843F480731360D0
:1026D000FFF774FB0646174B1B6813F4806F61D13C
:1026E000FFF76CFB801B0228F5D90320EDE1114AAE
:1026F000136843F4803313606FE703F18043A3F55D
:102700003C331A6842F480221A601A6842F480321C
:102710001A6062E7FFF752FB0746064B1B6813F48B
:10272000003FC5D0FFF74AFBC01B6428F5D9032042
:10273000CBE100BF00100240F49D00080C03002014
:1027400014030020022EBBD1A34B1B6813F4806F2F
:1027500003D0E368002B00F0B5819F4A536823F053
:10276000F853216943EA01635360236813F0080FAB
:102770004CD063699BB3984AD2F8943043F001037C
:10278000C2F89430FFF71AFB0646934BD3F8943007
:1027900013F0020F3AD1FFF711FB801B0228F4D986
:1027A000032092E18C4A536823F0F853216943EAED
:1027B00001635360D9E7884A136823F48073136078
:1027C000FFF7FCFA0646844B1B6813F4806FCCD0ED
:1027D000FFF7F4FA801B0228F5D9032075E17E4A41
:1027E000D2F8943023F00103C2F89430FFF7E6FAF0
:1027F0000646794BD3F8943013F0020F06D0FFF75A
:10280000DDFA801B0228F4D903205EE1236813F06F
:10281000040F7AD0704B9B6D13F0805F36D16E4BF6
:102820009A6D42F080529A659B6D03F0805301933C
:10283000019B0126694B1B6813F4807F28D0A36895
:10284000012B39D0052B3FD0634BD3F8902022F0D9
:102850000102C3F89020D3F8902022F00402C3F8BC
:102860009020A368002B3DD0FFF7A8FA07465A4BEB
:10287000D3F8903013F0020F46D1FFF79FFAC01B38
:1028800041F288339842F2D903201EE10026D1E7B5
:10289000524A136843F480731360FFF78FFA0746B8
:1028A0004E4B1B6813F4807FC9D1FFF787FAC01B1A
:1028B0000228F5D9032008E1474AD2F8903043F0C6
:1028C0000103C2F89030CCE7434BD3F8902042F09C
:1028D0000402C3F89020D3F8902042F00102C3F81C
:1028E0009020BEE7FFF76AFA07463B4BD3F89030DB
:1028F00013F0020F08D0FFF761FAC01B41F28833D2
:102900009842F2D90320E0E0EEB9A36A002B00F070
:10291000DB80022B1DD00C2D00F0DD802E4A1368C9
:1029200023F080731360FFF749FA04462A4B1B68B3
:1029300013F0007F00F0B780FFF740FA001B022879
:10294000F4D90320C1E0244A936D23F080539365AA
:10295000DBE7214BDB6803F00301E26A91420FD011
:102960000C2D00F0B4801C4B1B6813F0806F40F0FE
:10297000B080194B1B6813F0805F31D00120A4E0B8
:1029800003F07002216B0139B2EB011FE8D103F4AF
:10299000FE42616BB2EB012FE2D103F40031A26B76
:1029A000073A18BF01229142DAD103F4C001E26B69
:1029B0005208013AB1EB425FD2D103F0C063226CFE
:1029C0005208013AB3EB426FCAD1034B1B6813F0B4
:1029D000007F4ED0002078E00010024000700040E0
:1029E0003E4A136823F080731360FFF7E7F905464A
:1029F0003A4B1B6813F0007F06D0FFF7DFF9401B4E
:102A00000228F5D9032060E0344AD36834491940DC
:102A1000E36A206B013843EA0013606B43EA00234A
:102A2000E06B4008013843EA4053206C400801380D
:102A300043EA4063A06B000943EA40430B43D36081
:102A4000136843F080731360D36843F08073D360DE
:102A5000FFF7B4F90446214B1B6813F0007F06D141
:102A6000FFF7ACF9001B0228F5D903202DE0002068
:102A70002BE01A4B1A6842F080721A60DA6842F052
:102A80008072DA60FFF79AF90446144B1B6813F062
:102A9000007F06D1FFF792F9031B022BF5D9032023
:102AA00013E0002011E00D4AD1680E4B0B40D360BB
:102AB00000200AE001207047012006E0012004E028
:102AC000012002E0012000E0002003B0F0BD012061
:102AD000FBE70120F9E70120F7E700BF0010024003
:102AE0008C809DF9FCFFEEFE002800F0AF8070B5F1
:102AF0000D460446594B1B6803F007038B420BD26B
:102B0000564A136823F007030B431360136803F05E
:102B100007038B4240F09C80236813F0020F0CD017
:102B2000A2684F4B9B6803F0F0039A4205D94C49C9
:102B30008B6823F0F0031A438A60236813F0010FB7
:102B400039D06368032B09D0022B26D063BB444ADB
:102B5000126812F0020F06D1012076E0404A126896
:102B600012F0007F76D03E498A6822F003021343B8
:102B70008B60FFF723F90646394B9B6803F00C0383
:102B80006268B3EB820F16D0FFF718F9801B41F291
:102B900088339842F0D9032057E0314A126812F482
:102BA000003FE0D1012050E02D4A126812F4806FFE
:102BB000D9D1012049E0236813F0020F0CD0A2689C
:102BC000274B9B6803F0F0039A4205D224498B6897
:102BD00023F0F0031A438A60204B1B6803F00703BD
:102BE000AB420AD91D4A136823F007032B43136035
:102BF000136803F00703AB422ED1236813F0040FD0
:102C000006D0174A936823F4E063E1680B439360AE
:102C1000236813F0080F07D0114A936823F4605318
:102C2000216943EAC1039360FFF7F6FB0C4B9B68F5
:102C3000C3F303130B4AD35C03F01F03D8400A4BC2
:102C400018600A4B1868FFF775F870BD01207047CF
:102C50000120FAE70120F8E70120F6E70020024012
:102C600000100240F49D00080C0300201403002013
:102C7000014B1868704700BF0C03002008B5FFF730
:102C8000F7FF054B9B68C3F30223044AD35C03F0B0
:102C90001F03D84008BD00BF00100240049E00087A
:102CA00008B5FFF7E5FF054B9B68C3F3C223044A51
:102CB000D35C03F01F03D84008BD00BF00100240E2
:102CC000049E0008F8B504460F46594BDB6813F024
:102CD000030F18D0564BDB6803F0030302689342DE
:102CE00002D001252846F8BD002A00F09E80504BF6
:102CF000DB68C3F3021301334268934201D001251C
:102D0000F0E7002509E00368022B57D0032B5CD0C5
:102D1000012B42D00125002DE4D1454A136823F050
:102D200080631360FFF74AF80646414B1B6813F0B7
:102D3000006F05D0FFF742F8831B022BF5D903255E
:102D4000002DCFD1002F4ED139490B6923F41F3309
:102D500023F44073A068E2681209520442EA002298
:102D600013430B61324A136843F080631360FFF72B
:102D700025F806462E4B1B6813F0006F05D1FFF7B0
:102D80001DF8831B022BF5D90325002DAAD1284A53
:102D90001369A1690B431361A4E7254A126812F075
:102DA000020F1ED02248C26822F073026168013906
:102DB00043EA01131343C3600025ACE71C4A1268C1
:102DC00012F4806FEED10125A5E7194A126812F4BA
:102DD000003FE7D1164A126812F4802FE2D1012594
:102DE00099E7012597E7012F0FD01148026922F0DA
:102DF000C06222F4FE42A16863695B08013B5B0686
:102E000043EA012313430361ACE70948026922F452
:102E1000C00222F4FE42A16823695B08013B5B0506
:102E200043EA0123134303619CE701255AE700BFEE
:102E300000100240F8B504460F46504BDB6813F013
:102E4000030F18D04D4BDB6803F003030268934275
:102E500002D001252846F8BD002A00F08C80474B9F
:102E6000DB68C3F3021301334268934201D00125AA
:102E7000F0E7002509E00368022B57D0032B5CD054
:102E8000012B42D00125002DE4D13C4A136823F0E8
:102E900080531360FEF792FF0646384B1B6813F011
:102EA000005F05D0FEF78AFF831B022BF5D90325AF
:102EB000002DCFD1002F4ED130494B6923F41F3361
:102EC00023F44073A068E2681209520442EA002227
:102ED00013434B61294A136843F080531360FEF794
:102EE0006DFF0646254B1B6813F0005F05D1FEF70A
:102EF00065FF831B022BF5D90325002DAAD11F4A9C
:102F0000536961690B435361A4E71C4A126812F0CC
:102F1000020F1ED01948C26822F07302616801399D
:102F200043EA01131343C3600025ACE7134A126858
:102F300012F4806FEED10125A5E7104A126812F451
:102F4000003FE7D10D4A126812F4802FE2D101252B
:102F500099E7012597E70948426922F0C06222F407
:102F6000FE42A16823695B08013B5B0643EA01233B
:102F700013434361AEE701256CE700BF0010024038
:102F80002DE9F04182B00446036813F4006F33D09A
:102F9000436EB3F5000F1FD00CD823B3B3F5800FE9
:102FA00005D100212030FFF745FF064620E001272C
:102FB0003E4623E0B3F5400F0BD10026604AD2F81D
:102FC000883023F44003616E0B43C2F88830002739
:102FD00014E001273E4611E0594AD36843F4803398
:102FE000D3600026EAE700210430FFF76BFE0646B7
:102FF000002EE3D0374601E000273E46236813F455
:10300000805F30D0A36EB3F1007F1FD00DD81BB30B
:10301000B3F1807F06D1002104F12000FFF70AFF01
:10302000064605E001273E461DE0B3F1407F0AD188
:10303000C6B9434AD2F8883023F04073A16E0B43DF
:10304000C2F888300FE001273E460CE03C4AD368C6
:1030500043F48033D360EBE70021201DFFF732FEFD
:103060000646E5E73746236813F4003F71D0344B3A
:103070009B6D13F0805F4ED1314B9A6D42F08052C0
:103080009A659B6D03F080530193019B4FF00108FB
:103090002C4A136843F480731360FEF78FFE0546D5
:1030A000284B1B6813F4807F05D1FEF787FE401B79
:1030B0000228F5D90326002E46D1214BD3F89030B3
:1030C00013F4407316D0D4F884209A4212D01C4ACC
:1030D000D2F8903023F44073D2F8901041F480314C
:1030E000C2F89010D2F8901021F48031C2F89010FC
:1030F000C2F8903013F0010F10D1002E40F027815C
:103100000F4AD2F8903023F44073D4F884100B4364
:10311000C2F8903019E04FF00008B9E7FEF74EFE14
:103120000546074BD3F8903013F0020FE5D1FEF7B8
:1031300045FE401B41F288339842F2D90326DCE772
:1031400000100240007000403746B8F1000F40F018
:103150000081236813F0010F08D09D4AD2F888300F
:1031600023F00303A16B0B43C2F88830236813F0EC
:10317000020F08D0964AD2F8883023F00C03E16B96
:103180000B43C2F88830236813F0040F08D0904A2C
:10319000D2F8883023F03003216C0B43C2F888301A
:1031A000236813F0080F08D0894AD2F8883023F03A
:1031B000C003616C0B43C2F88830236813F0100F12
:1031C00008D0834AD2F8883023F44073A16C0B43B3
:1031D000C2F88830236813F0200F08D07C4AD2F858
:1031E000883023F44063E16C0B43C2F888302368D5
:1031F00013F4007F08D0764AD2F8883023F44023B5
:10320000E16D0B43C2F88830236813F4806F08D057
:103210006F4AD2F8883023F44013216E0B43C2F872
:103220008830236813F0400F08D0694AD2F88830FC
:1032300023F44053216D0B43C2F88830236813F008
:10324000800F08D0624AD2F8883023F44043616D81
:103250000B43C2F88830236813F4807F08D05C4A9F
:10326000D2F8883023F44033A16D0B43C2F8883084
:10327000236813F4005F0FD0554AD2F8883023F04A
:103280004063E16E0B43C2F88830E36EB3F1006F28
:1032900065D0B3F1806F67D0236813F4002F0FD08F
:1032A0004B4AD2F8883023F04063216F0B43C2F8B9
:1032B0008830236FB3F1006F5ED0B3F1806F60D0C0
:1032C000236813F4802F0FD0414AD2F8883023F0BE
:1032D0004063616F0B43C2F88830636FB3F1006FD6
:1032E00057D0B3F1806F59D0236813F4804F0FD0BB
:1032F000374AD2F8883023F04053A16F0B43C2F80D
:103300008830A36FB3F1805F50D0B3F1005F55D028
:10331000236813F4004F08D02D4AD2F8883023F0E8
:103320008043E16F0B43C2F88830236813F4803F79
:1033300009D0274AD2F8883023F00043D4F880100F
:103340000B43C2F88830384602B0BDE8F0813746FA
:10335000FBE61F4A936D23F080539365F9E6D3682B
:1033600043F48013D36097E70121201DFFF7AAFCE7
:10337000002891D007468FE7D36843F48013D360C9
:103380009EE70121201DFFF79DFC002898D00746ED
:1033900096E7D36843F48013D360A5E70121201D8D
:1033A000FFF790FC00289FD007469DE70221201DD3
:1033B000FFF788FC0028ABD00746A9E7022104F1FB
:1033C0002000FFF737FD0028A2D00746A0E700BF86
:1033D00000100240026852E8003F23F4907342E874
:1033E00000310029F6D1026802F1080353E8003FDA
:1033F00023F00103083242E800310029F3D1036EC3
:10340000012B06D02023C0F880300023036683669A
:103410007047026852E8003F23F0100342E8003191
:103420000029F6D1EEE7E0B138B505462423C3679D
:103430000268136823F001031360036800241C6012
:1034400003685C6003689C60FEF71EFCC5F884405E
:10345000EC67C5F880402C666C6685F8784020469D
:1034600038BD01207047000010B50446016883682C
:103470000269134342691343C269134308688E4AC1
:10348000024013430B602268536823F44053E16801
:103490000B435360A1692268884B9A4201D0236A8A
:1034A0001943936823F430630B4393602368844A81
:1034B000934210D0834A934221D0834A934237D01B
:1034C000824A93425CD0824A93426BD07B4A9342B9
:1034D0007DD010223AE002F55842D2F8882002F05E
:1034E0000302032A09D8DFE802F00204870601225A
:1034F0002CE004222AE0082228E0102226E002F52F
:10350000E632D2F8882002F00C020C2A0ED8DFE84E
:1035100002F0070D0D0D090D0D0D750D0D0D0B00B4
:10352000002213E0042211E008220FE010220DE037
:1035300002F5E432D2F8882002F03002202A5FD06F
:103540001AD8002A5ED0102A5ED104225B498B4231
:1035500076D0E069B0F5004F00F0A380082A00F2B1
:103560000E81DFE812F0DD00F300DB000C01F60055
:103570000C010C010C01F900302A47D10822E5E7C3
:1035800002F5E232D2F8882002F0C002802A3FD051
:1035900004D8FAB3402A3FD10422D7E7C02A3DD14C
:1035A0000822D3E702F5E032D2F8882002F4407214
:1035B000B2F5007F34D005D8A2B3B2F5807F33D105
:1035C0000422C3E7B2F5407F30D10822BEE702F5FE
:1035D000C832D2F8882002F44062B2F5006F27D0DA
:1035E00005D83AB3B2F5806F26D10422AEE7B2F522
:1035F000406F23D10822A9E70222A7E70222A5E70C
:103600000222A3E70022A1E710229FE710229DE7F4
:1036100002229BE7002299E7102297E7102295E704
:10362000022293E7002291E710228FE710228DE714
:1036300002228BE7002289E7102287E7102285E724
:10364000082A00F28C80DFE802F0088A2A8A278A9A
:103650008A8A05004FF4004003E0FFF70FFB0028C3
:103660007FD0626802EB420383427CD8B0EB023F1A
:103670007BD8010E00025308C0184FF0000341F13F
:103680000001FCF7BDFDA0F54072124B9A426ED8C6
:103690002368D860002055E0FEF7BEFEDFE70E4845
:1036A000DFE7082A65D8DFE802F0193305643664DD
:1036B00064641D00084815E0F369FFEF00800040D6
:1036C000003801400044004000480040004C0040E9
:1036D00000500040FFFC0F000024F400FFF7CEFA7A
:1036E000002848D06268530803EB4000B0FBF2F0BA
:1036F000A0F110024FF6EF739A423ED883B223F046
:103700000F03C0F3420018432368D860002019E07B
:10371000FFF7C6FAE4E7FEF77FFEE1E71B4802E0A9
:10372000FFF7ACFA68B3636800EB5300B0FBF3F04B
:10373000A0F110024FF6EF739A4224D8236880B2AA
:10374000D86000200023A366E36610BDFFF7A8FA47
:10375000E8E7FEF761FEE5E74FF40040E3E701200C
:10376000F0E70020EEE70120ECE70120EAE7012086
:10377000E8E70120E6E70020E4E70120E2E7012096
:10378000E0E70020DEE70120DCE700BF0024F400D2
:10379000436A13F0080F06D00268536823F400430D
:1037A000416B0B435360436A13F0010F06D002686C
:1037B000536823F40033816A0B435360436A13F068
:1037C000020F06D00268536823F48033C16A0B43AA
:1037D0005360436A13F0040F06D00268536823F461
:1037E0008023016B0B435360436A13F0100F06D024
:1037F0000268936823F48053816B0B439360436AA0
:1038000013F0200F06D00268936823F40053C16BB5
:103810000B439360436A13F0400F0AD00268536869
:1038200023F48013016C0B435360036CB3F5801FCA
:103830000BD0436A13F0800F06D00268536823F45C
:103840000023816C0B43536070470268536823F474
:10385000C003416C0B435360EBE72DE9F843054689
:103860000F4616469946DDF820802C68E46937EA51
:1038700004030CBF4FF0010C4FF0000CB44532D1E3
:10388000B8F1FF3FF1D0FEF799FAA0EB09004045EF
:103890002CD8B8F1000F2BD02B681A6812F0040F47
:1038A000E3D0DA6912F0080F11D1DA6912F4006F6F
:1038B000DBD04FF400621A622846FFF78BFD20230D
:1038C000C5F88430002385F8783003200CE0082404
:1038D0001C622846FFF77EFDC5F88440002385F86A
:1038E0007830012000E00020BDE8F8830320FBE7EA
:1038F0000320F9E72DE9F04182B01E46C36F202B6B
:1039000056D104460D469046002955D00AB90120EB
:103910004FE00023C0F884302123C367FEF74EFA3E
:103920000746A4F85080A4F85280A368B3F5805FDE
:1039300002D04FF0000818E0236913B14FF00008DF
:1039400013E0A846002510E02023E367032030E0C1
:1039500038F8023B2268C3F308031385B4F85220F9
:1039600092B2013A92B2A4F85220B4F852309BB20B
:103970007BB100963B46002280212046FFF76DFF79
:103980000028E1D1002DE3D0236815F8012B1A851A
:10399000E4E700963B46002240212046FFF75DFF0A
:1039A00010B92023E36704E02023E367032000E04D
:1039B000022002B0BDE8F0810120FAE72DE9F043D2
:1039C00083B01E46D0F88030202B7DD104460D46B2
:1039D000904600297CD00AB9012076E00023C0F887
:1039E00084302222C0F880200366FEF7E7F90746FC
:1039F000A4F85880A4F85A80A368B3F5805F06D075
:103A0000A3B9226972B9FF22A4F85C2014E02269EC
:103A100022B940F2FF12A4F85C200DE0FF22A4F8C6
:103A20005C2009E07F22A4F85C2005E0B3F1805F10
:103A30000AD00022A4F85C20B4F85C80B3F5805F63
:103A40000CD04FF0000923E022691AB97F22A4F8B4
:103A50005C20F1E73F22A4F85C20EDE7236913B175
:103A60004FF0000914E0A946002511E02023C4F816
:103A70008030032029E023689B8C08EA030329F89F
:103A8000023BB4F85A2092B2013A92B2A4F85A20FA
:103A9000B4F85A309BB293B100963B4600222021E5
:103AA0002046FFF7DAFE0028E0D1002DE3D023689E
:103AB0009A8C5FFA88F3134005F8013BE1E7202375
:103AC000C4F88030002000E0022003B0BDE8F0839D
:103AD0000120FAE730B583B004460023C0F88430F3
:103AE000FEF76CF905462268126812F0080F0FD134
:103AF00023681B6813F0040F26D12023E367C4F862
:103B0000803000202066606684F8780003B030BD05
:103B10006FF07E430093034600224FF400112046CD
:103B2000FFF79BFE0028E3D0226852E8003F23F015
:103B3000800342E800310029F6D12023E367002307
:103B400084F878300320E1E76FF07E4300932B4642
:103B500000224FF480012046FFF77FFE0028CCD0E2
:103B6000226852E8003F23F4907342E800310029B4
:103B7000F6D1226802F1080353E8003F23F0010365
:103B8000083242E800310029F3D12023C4F8803004
:103B9000002384F878300320B8E768B310B50446F2
:103BA000C36F03B32423E3672268136823F0010380
:103BB0001360636AE3B92046FFF756FC012811D071
:103BC0002268536823F4904353602268936823F07B
:103BD0002A0393602268136843F0010313602046B0
:103BE000FFF778FF10BD80F87830FDF7C7FFD9E701
:103BF0002046FFF7CDFDDEE70120704730B587B0E6
:103C000000240194029403940494059404F18044E4
:103C100004F50434E56C45F00205E564E46C04F059
:103C200002040094009C01910292039301A9FEF703
:103C30005DF907B030BD000008B502460221024818
:103C4000FEF7F9FA08BD00BF0008004808B50246B3
:103C500040210248FEF7EFFA08BD00BF000C004803
:103C600008B50023012202210748FFF7C7FF012002
:103C7000FFF7E2FF0120FFF7E9FF0020FFF7DCFF7D
:103C80000020FFF7E3FF08BD0008004838B50446F0
:103C90000023012202210F48FFF7B0FF0020FFF7A9
:103CA000D5FF00250CE00020FFF7C6FF6400E4B25A
:103CB0000120FFF7CBFF0020FFF7C8FF0135EDB271
:103CC000072D06D814F0800FEDD00120FFF7B4FFC8
:103CD000ECE738BD0008004808B5002301220221A6
:103CE0000748FFF78BFF0020FFF7A6FF0020FFF734
:103CF000ADFF0120FFF7AAFF0120FFF79DFF08BDE0
:103D00000008004808B50020FFF7A0FF00230122AB
:103D100002210648FFF772FF0120FFF78DFF012007
:103D2000FFF794FF0020FFF791FF08BD000800484F
:103D300008B50020FFF78AFF002301220221064870
:103D4000FFF75CFF0020FFF777FF0120FFF77EFF02
:103D50000020FFF77BFF08BD0008004808B50221DE
:103D60000148FEF761FA08BD0008004838B5012394
:103D7000002202210C48FFF741FF0120FFF75CFF02
:103D80000120FFF763FF0024FFF7E8FF054638B185
:103D90000134E4B2FA2CF7D9FFF79EFF012501E0C8
:103DA000FFF754FF284638BD0008004870B50646A6
:103DB0000123002202211048FFF720FF002425469E
:103DC00001E00135EDB2072D0ED80020FFF73EFFD0
:103DD0000120FFF73BFF6400E4B2FFF7BFFF0028BC
:103DE000EFD00134E4B2ECE71EB9FFF78BFF2046B9
:103DF00070BDFFF79DFFFAE70008004808B5FFF720
:103E00002FFF7020FFF742FFE120FFF73FFF082060
:103E1000FFF73CFF0020FFF739FFFFF75DFF282089
:103E2000FDF7D2FF08BD2DE9F04782B005460F46E9
:103E3000FFF716FF7020FFF729FFFFF797FFAC2071
:103E4000FFF724FFFFF792FF3320FFF71FFFFFF775
:103E50008DFF0020FFF71AFFFFF788FFFFF73CFFF9
:103E60005020FDF7B1FFFFF7FBFE7120FFF70EFFBB
:103E7000FFF77CFF0120FFF799FF10F0400F05D0FE
:103E8000FFF72AFF002002B0BDE8F0870120FFF70E
:103E90008DFF82468DF800000120FFF787FF064660
:103EA0008DF801000120FFF781FF04468DF8020024
:103EB0000120FFF77BFF81468DF803000020FFF70C
:103EC00075FF80468DF80400FFF706FF320102EB14
:103ED0000A3202EB1412230403F4702303EB0923C8
:103EE00043444FF47A7606FB02F2120D3A804FF407
:103EF000FA6000FB03F31B0DA3F5FA732B8001207E
:103F0000C1E70000014B1868704700BF180300208C
:103F100070B50D4E0D4D761BB61006D0002455F829
:103F2000043B01349847A642F9D1094E094D761B4E
:103F300005F04EFFB61006D0002455F8043B0134BE
:103F40009847A642F9D170BD40A2000840A20008DF
:103F500048A2000840A20008830730B548D0541E8C
:103F6000002A3FD0CAB2034601E0013C3AD303F82D
:103F7000012B9D07F9D1032C2DD9CDB245EA05259A
:103F80000F2C45EA054536D9A4F1100222F00F0C9A
:103F900003F1200EE6444FEA121C03F1100242E93D
:103FA000045542E9025510327245F8D10CF1010274
:103FB00014F00C0F03EB021204F00F0C13D0ACF151
:103FC000040323F003030433134442F8045B9342D5
:103FD000FBD10CF003042CB1CAB21C4403F8012B32
:103FE0009C42FBD130BD64461346002CF4D1F9E766
:103FF00003461446BFE71A46A446E0E70EB410B5E0
:104000009DB06FF000411FABCDE906010491094955
:1040100053F8042B0290084C0868019302A90594F8
:1040200000F00CF8029B00221A701DB0BDE8104091
:1040300003B07047180300200802FFFF2DE9F04F7E
:10404000D5B00C460C9191460E930A9002F086FE74
:10405000036817931846FCF773FAA389169019069C
:1040600003D52369002B00F08B8700242BAB4D4632
:10407000CDE92944CDE91944CDE91B441294289394
:1040800098461894002308940024CDE914342B7822
:10409000002B00F0DD81AA4604E01AF8013F002B56
:1040A00000F01681252BF8D1BAEB050640F01481FB
:1040B0009AF80030002B00F0CB8100234FF0FF3244
:1040C0009AF801608DF8833009930AF1010A07928A
:1040D0001F462B244FF020090AF1010AA6F1200304
:1040E0005A2B00F22D81DFE813F0BA022B012B01CD
:1040F000B5022B012B012B016A002B012B014F0272
:10410000E3022B015A02C9022B01C4025B005B00CF
:104110005B005B005B005B005B005B005B002B01F6
:104120002B012B012B012B012B012B01BF012B019B
:104130001A028600BF01BF01BF012B012B012B0119
:104140002B01B0022B012B01C3002B012B012B01F2
:1041500024022B015F022B012B013C072B012B01B9
:104160002B012B012B012B012B012B01BF012B015B
:104170001A028800BF01BF01BF01A30288008100AD
:104180002B0196022B018202C500700281002B01D7
:1041900024027E0039072B012B0119072B017E0019
:1041A000A6F1300300221AF8016B02EB820203EB46
:1041B0004202A6F13003092BF5D909928EE7DDF80A
:1041C00028B0584602F0CAFD43681B931846FCF716
:1041D000B7F91C900646584602F0C0FD8368199353
:1041E000002E40F07A869AF8006075E79AF8006031
:1041F00047F0200770E747F01007BA060E9B40F122
:104200008081073323F007031A465B6852F8084B96
:104210000E929946002BC0F25F85079B013301F097
:104220001F8054EA090327F0800B00F0E3840A2C76
:1042300079F1000380F08187303401238DF84F41FC
:104240005F460B930DF24F1507990B989DF883204D
:1042500081424FF00003B8BF01460D9306910F93C2
:1042600013931093002A7CD0069B0133069378E0C9
:1042700047F0100717F0200900F034810E9B073338
:1042800023F00703D3F8049053F8084B0E9327F458
:10429000806B002300228DF88320079A511C00F0C8
:1042A0000D8254EA09012BF0800740F00682002AB3
:1042B00041F01080002B40F0A2841BF001030B930F
:1042C00000F0378530238DF84F310DF24F15BBE7E5
:1042D000BAEB050600F0BC802A9B33442A93299B45
:1042E0000133072BC8E90056299305DC08F10808BB
:1042F000089B33440893DBE60C990A9828AA03F03C
:104300001BFC80B90DF1AC08F2E70C990A9828AAB9
:1043100003F012FC002800F08C800D9B1BB10D995E
:104320000A9802F015FC0C9B9B8913F0400F089B28
:1043300018BF4FF0FF330893089855B0BDE8F08FD1
:10434000002E00F0858000228DF8EC608DF883202F
:10435000012306930D920B9307920F9213921092E2
:104360003BAD17F0020302D006990231069117F017
:10437000840B07D109990698A1EB0009B9F1000F48
:1043800000F315832A9C8AB1299A0DF18301013229
:104390000134C8F80010072A4FF001012A9429922D
:1043A000C8F8041000F3468308F1080883B1299B7C
:1043B00021AA01330234C8F80020072B4FF0020273
:1043C0002A942993C8F8042000F3488308F10808C8
:1043D000BBF1800F00F00E82079B0B9AA3EB020B40
:1043E000BBF1000F00F34F82FB0500F1A5810B9B91
:1043F000C8F804301C44299BC8F800500133072B2F
:104400002A94299300F3C78208F108087B0705D591
:10441000099B069A9D1A002D00F32C83DDE90832D2
:1044200006998A42ACBF9B185B180893002C7FF456
:104430006CAF002329930D9B1BB10D990A9802F0D4
:1044400087FB0DF1AC0855462B78002B7FF423AE8B
:104450002A9B002B3FF467AF0C9C0A9828AA2146A0
:1044600003F06AFBA38960E70E9B073323F0070282
:10447000F2E80234CDE91434DDE9143424F00044C8
:104480000E92994618462146A74B4FF0FF32FCF793
:1044900007FE002840F06284A34B484621464FF0B7
:1044A000FF32FCF7DFFD002840F05884DDE91401FD
:1044B00000220023FCF7CCFD002840F0AD879DF8DA
:1044C00083209A4D9A4B27F080070321472EC8BFBF
:1044D0001D4600230D9306910B9107930F931393A1
:1044E0001093BFE617F0100340F02E8417F040023F
:1044F00000F054870E9A52F8044B0E929946A4B2DB
:10450000C5E653F8044B0E93FB0600F118847D06B4
:1045100040F1128444F3C0394B4624B27AE60E9B34
:10452000002253F8041B8DF883208DF8EC100E93B5
:104530000EE70E9C079B54F8045B4FF000098DF8C2
:104540008390002D00F0D5865A1C00F052851A4643
:1045500049462846FCF764F80D90002801F0578082
:104560000D9BCDF81C905B1B0B930E9423EAE37319
:104570009DF883200693CDF83490CDF83C90CDF88B
:104580004C90CDF840906DE60E9B53F8042B0992A9
:10459000002A80F2C983099A0E93524209929AF82E
:1045A000006047F0040797E547F0100B1BF0200967
:1045B00000F081830E9B073323F00703D3F80490A8
:1045C00053F8084B0E93012364E60E9B53F8044BFB
:1045D0000E93302378268DF88430564B189347F08D
:1045E000020B8DF885604FF00009022352E6BD06EC
:1045F00000F18284FC0600F17386780600F13C87A6
:10460000B90540F16D860E9B089953F8042B0E9363
:104610001170554618E79AF800606C2E03BF9AF89F
:10462000016047F020070AF1010A47F0100753E53F
:104630009AF80060682E03BF9AF8016047F400778B
:104640000AF1010A47F0400746E59AF8006047F092
:10465000080741E59AF8006047F001073CE59DF83E
:104660008330002B7FF4BFAD9AF800608DF8839003
:1046700032E59AF8006047F080072DE5524612F8BF
:10468000016B2A2E01F0CD81A6F13003092B924651
:1046900098BF002201F288801AF8016B02EB8202B7
:1046A00003EB4202A6F13003092BF5D9079215E579
:1046B0009AF800608DF883400EE5BB46012B3FF46D
:1046C000B6AD022B54AD12D1189A04F00F03240991
:1046D000D35C05F8013D44EA09744FEA191954EA1C
:1046E0000903F2D154AB5B1B5F460B93ACE504F0BE
:1046F0000703E40844EA49744FEAD909303354EA1D
:1047000009012A4605F8013DF1D11BF0010FE9D05E
:10471000302BE7D03023023A05F8013C54AB9B1A0A
:104720005F460B9315468FE5FFFFEF7F409E000825
:10473000449E0008509E0008652E40F3E680DDE9A7
:10474000140100220023FCF779FC002800F0CD8141
:10475000299BBF4AC8F80020013301340122072BEE
:104760002A942993C8F8042000F37D8508F10808ED
:10477000229B129A934280F2D382169B179A1C4472
:10478000C8E90023299B2A940133072B299300F3BE
:10479000EB8308F10808129B5D1E002D7FF736AEF3
:1047A000102D299BDFF8AC9240F36E8549462246D6
:1047B000B946DDF828B00C9C10260F4605E008F13C
:1047C0000808103D102D40F35B8501331032072B94
:1047D000C8E90076CDE92932F1DD28AA21465846FC
:1047E00003F0AAF900287FF498ADDDE929320DF134
:1047F000AC08E6E7099B069AA3EB020BBBF1000F9E
:104800007FF7EAADBBF1100F299ADFF848922CDD53
:104810001D9621464E460C9CDDF82890102306E09C
:10482000ABF1100BBBF1100F08F108081ADD0132D3
:104830001031072AC8E90063CDE92921F0DD28AA53
:10484000214648460DF1AC0803F076F900287FF4C4
:1048500064ADABF1100BBBF1100FDDE929214FF076
:104860001003E4DCB1461D9E0C4601325C44072A6D
:10487000CDE92924C8F80090C8F804B000F31D85DC
:1048800008F10808A8E5BBF1100F299ADFF8C491D8
:104890002DDD41462046A8464C460C9DDDF828906B
:1048A000102306E0ABF1100BBBF1100F01F1080172
:1048B00019DD01321030072AC1E90043CDE9292072
:1048C000F0DD28AA2946484603F036F900287FF48F
:1048D00024ADABF1100BBBF1100FDDE929202BA9A2
:1048E0004FF01003E5DC4546A146884604460132F8
:1048F0005C44072ACDE92924C8F80090C8F804B020
:1049000000F3CC8108F108086EE5129B012B40F3FF
:104910007C81299EC8F80050013601340123072EFE
:104920002A942996C8F8043000F3E08108F10808B9
:10493000169B179A01361C44072EC8E90023CDE9BF
:10494000296400F3E08108F10808DDE91401002280
:104950000023FCF773FB002840F07481129B0136A2
:10496000013B01351C44072EC8F800502996C8F8B1
:1049700004302A9400F3598108F108081A9BC8F8FA
:10498000043001361C44072E24ABCDE92964C8F855
:1049900000307FF739AD0C990A9828AA03F0CCF8BB
:1049A00000287FF4BAAC2A9C0DF1AC082EE5B9F1D1
:1049B000100FDDE929212BDDCDE91D3B1F96DDF828
:1049C00028B04E461024A9460C9D04E0103E102E3F
:1049D00008F1080817DD01321F4B1031072AC8E91A
:1049E0000034CDE92921F1DD28AA294658460DF1E8
:1049F000AC0803F0A1F800287FF48FAC103E102E15
:104A0000DDE92921E7DCDDE91D3B4D46B1461F9E6E
:104A1000C8F80490013209EB0104072A0E49C8F8CE
:104A20000010CDE9292400F3FF839DF8832008F1CD
:104A30000808A8E40C990A981D9328AA03F07CF8AA
:104A400000287FF46AAC2A9C1D9B0DF1AC08ADE4F4
:104A5000809E0008949E0008849E00080C990A9885
:104A600028AA03F069F800287FF457AC2A9C0DF1BE
:104A7000AC08ADE4102D299B21DD0A9FDDF83090B4
:104A8000102604E0103D102D08F1080817DD013351
:104A9000B04A1034072BC8E90026CDE92934F1DDEE
:104AA00028AA494638460DF1AC0803F045F800281D
:104AB0007FF433AC103D102DDDE92934E7DC013300
:104AC000A44AC8F804502C44072BCDE92934C8F86F
:104AD00000207FF7A3AC0C990A9828AA03F02CF8C1
:104AE00000287FF41AAC2A9C98E42299002940F30C
:104AF0006683DDF84090129B9945A8BF9946B9F1AD
:104B0000000F0BDD299B01334C44072BC8E90059EA
:104B10002A94299300F32F8508F10808109EB9F113
:104B2000000FA8BFA6EB0906002E00F33882DDF8BF
:104B300040B07805AB4400F16682229B129A934202
:104B400002DBF90740F18E84169A17991444C8E9DC
:104B50000012299A2A940132072A299200F3188513
:104B600008F10808129AAE18A6EB0B06D51AAE4249
:104B7000A8BF2E46002E0DDD299BC8F800B00133DA
:104B80003444072BC8F804602A94299300F31A864A
:104B900008F10808002EA8BFAD1B002D7FF736AC2A
:104BA000102D299BDFF8B09140F36E8349462246D1
:104BB000B946DDF828B00C9C10260F4605E008F138
:104BC0000808103D102D40F35B8301331032072B92
:104BD000C8E90076CDE92932F1DD28AA21465846F8
:104BE00002F0AAFF00287FF498ABDDE929320DF12D
:104BF000AC08E6E7079B002B7FF41EAB5F46002363
:104C000007930B9354ADFFF71FBBFA073FF581AE37
:104C1000299EC8F80050013601340123072E2A943A
:104C20002996C8F804307FF7A7AE0C990A9828AAED
:104C300002F082FF00287FF470ABDDE929640DF1FA
:104C4000AC089BE6129B5D1E002D7FF797AE102DE2
:104C5000DFF8049140F39683224607970A9C0C9F45
:104C60004FF0100B05E008F10808103D102D40F33F
:104C7000878301361032072EC8E9009BCDE92962EF
:104C8000F1DD28AA3946204602F056FF00287FF4BD
:104C900044ABDDE929620DF1AC08E6E70C990A980E
:104CA00028AA02F049FF00287FF437AB2A9C0DF1B7
:104CB000AC08FFF799BB1BF0100340F028811BF0F4
:104CC000400200F079830E9A52F8044B0E929946F6
:104CD000A4B20123FFF7DEBA2D2364428DF883309E
:104CE00069EB4909BB460123FFF7D7BA0C990A982B
:104CF00028AA02F021FF00287FF40FABDDE9296428
:104D00000DF1AC0814E60C990A9828AA02F014FFD9
:104D100000287FF402ABDDE929640DF1AC0814E64C
:104D2000FD077FF573AB28E59AF800600E93FFF757
:104D3000D3B954ADFFF788BAB80500F1A6834FEA9E
:104D4000E4794B46FFF766BA0E9B53F8044B0E937B
:104D5000FFF79DBA849E0008949E0008DDE91401C7
:104D600002460B46FCF79CF9002840F00F86612EA6
:104D700000F04585412E00F06D84079B013326F03D
:104D80002003069300F0A983472B00F08885DDE916
:104D9000141247F480730F931346002BC0F29285D0
:104DA0000B9300231D938B460D93069B462B00F01F
:104DB000FD83452B00F044850799019126A90491B4
:104DC00023A9039122A9029102210B9B0A98009129
:104DD0005A4600F0F5FE069B472B054640F031860B
:104DE00017F0010FB9460F9F40F0FC84269B5B1B18
:104DF0001293069B472B00F08283069B462B00F004
:104E00001284229B1093109B069A013B412A229305
:104E100000F0AD85F2B20021002BB8BF109B8DF8D9
:104E20009020BABFC3F101032D222B22092B8DF84C
:104E3000912040F38D850DF19F04B64F2246104618
:104E400087FB0321DA17C2EBA10202EB8201A3EB7D
:104E50004101303100F8011C19466329134600F165
:104E6000FF32ECDC3033D9B2831E9C4202F8011CC5
:104E700040F2F18513460DF1920201E013F8011B97
:104E800002F8011B9C42F9D10DF1A1030DF1920230
:104E90001B1A134424AA9B1A1A93129B1A9A012BC9
:104EA0001A440B9240F39E850B9B169A13440B9366
:104EB0000B9A002329F4806722EAE27247F4807794
:104EC0000F930692139310931D9B002B40F03F838A
:104ED0009DF883200793FFF7C5B9199B002B3FF47A
:104EE00082A9199B1B78002B3FF47DA99AF80060DA
:104EF00047F48067FFF7F0B80E9B089853F8041B3F
:104F00000E93C217C1E900025546FFF79DBA0E9BEA
:104F100053F8044B0E930123FFF7BCB97E4B189353
:104F200017F0200900F0EC800E9B073323F00703F5
:104F3000D3F8049053F8084B0E93F80709D554EAB8
:104F4000090306D030238DF8856047F002078DF8FD
:104F5000843027F4806B0223FFF79CB9BB46FFF730
:104F600025BB6E4B1893DBE70C990A9828AA02F030
:104F7000E3FD00287FF4D1A92A9C0DF1AC080AE4D6
:104F80000A98402101F0F6FE0C9B18601861002879
:104F900000F065850C9A40235361FFF766B8102E28
:104FA000299BDFF87C9140F32982484642462146FE
:104FB000A846B9460A9C0C9D4FF0100B074604E02A
:104FC0000832103E102E40F3138201331031072BAC
:104FD000C2E9007BCDE92931F2DD28AA2946204625
:104FE00002F0AAFD00287FF498A9DDE929312BAA57
:104FF000E7E72846CDF81C900E94FBF7A1FA03468C
:105000000B90FFF7B3BA129BCDF82CA04246DDF807
:105010004C801097EB1807935E46199FDDF870904F
:10502000DDF828A0DDF830B00F9B13952146B8F1CC
:10503000000F2FD0002B30D1013F08F1FF381B9B10
:10504000C2E90039299B01334944072B2A9129934E
:1050500068DC0832079B38789B1B8342A8BF034655
:10506000002B1C460BDD2998013019440728C2E9A2
:1050700000632A91299000F3148138780832002CBB
:10508000ACBF051B0546002D0BDC06440F9BB8F199
:10509000000FCFD1002B00F023820F9B013B0F9319
:1050A000CDE7102D29981DDD102404E0103D102DB2
:1050B00002F1080216DD0130194B10310728C2E950
:1050C0000034CDE92901F1DD28AA5946504602F005
:1050D00033FD00287FF421A9103D102DDDE92901C1
:1050E0002BAAE8DC01300E4B556029440728CDE996
:1050F0002901136000F33282387808320644C5E78C
:1051000017F0100300F0A1800E9B53F8044B0E9390
:1051100013E700BF67666666509E0008649E00083D
:10512000949E000828AA5946504602F005FD002822
:105130007FF4F3A82A992BAA8CE70BF48063002252
:105140000696CDF82CA0CDF8348054AFDDF86480FD
:105150009A4616460CE00023204649460A22FBF7F1
:105160004FF80A2C79F100031BD3044689462F46D9
:1051700020460A2200234946FBF742F830327D1EC2
:10518000013607F8012CBAF1000FE4D098F800308E
:105190009E42E0D1FF2EDED00A2C79F1000380F090
:1051A000408154AB5B1BDDF82CA0CDF864801296D7
:1051B000DDF83480069E0B935F46FFF745B8299BC8
:1051C000BC4AC8F80020013301340122072B2A947D
:1051D0002993C8F8042000F3388108F10808002951
:1051E00040F09780129A07F0010313433FF40EA991
:1051F000169B17991A19C8E90013299B2A920133A3
:10520000072B299300F3478108F108081299C8F881
:10521000005001338C18072BCDE92934C8F804104D
:105220007FF7F2A8FFF7B7BB0C990A981D9328AA3D
:1052300002F082FC00287FF470A89DF883202A9C4D
:105240001D9B0DF1AC08FFF79EB817F0400200F06F
:10525000C2800E9A52F8044B0E929946A4B26CE6A4
:10526000BB46FEF7E4BF0C990A9828AA02F064FC3A
:1052700000287FF452A82A9C0DF1AC08FFF778BAF9
:1052800014463A464F46914601332C44072BC8F842
:105290000090C8F80450CDE929347FF7B5A8FFF78E
:1052A0007ABB28AA5946504602F046FC00287FF4F3
:1052B00034A838782A992BAAE1E60C990A9828AAEA
:1052C00002F03AFC00287FF428A82A9C0DF1AC08D3
:1052D000FFF782B8012BBB467FF4F3A9FEF7ACBF02
:1052E0000E9B089953F8042B554611600E93FFF757
:1052F000ABB8062B294628BF062307950D952A46ED
:1053000006936D4D0E940B930F9113911091FEF730
:10531000A9BF169B17981A19C8E90003299B2A925E
:105320000133072B299300F3B68008F10808002900
:10533000BFF66CAF4E421031DFF8809180F2978259
:105340004146DDF828B0A84610240C9D04E0083141
:10535000103E102E40F3898201331032072BC1E931
:105360000094CDE92932F2DD28AA2946584602F0F8
:10537000E3FB00287EF4D1AFDDE929322BA9E7E772
:10538000079F144601362C44072ECDE92964C8F83E
:105390000090C8F804507FF7EFAA46E40E9B17F47C
:1053A000007914BF53F8044B53F8044B0E931CBF01
:1053B0009146E4B2FEF76BBF0E9B1BF4007914BF5D
:1053C00053F8044B53F8044B0E931CBF9146E4B2C0
:1053D0000123FEF75FBF0E9B17F4007914BF53F84B
:1053E000044B53F8044B0E931CBF9146E4B2A4E562
:1053F000454690463A460C464F4691460133344462
:10540000072BCDE92934C8F80090C8F8046057DCB0
:1054100008F10808FFF78BBB2D228DF88320FFF7DA
:1054200050B81C9B1B99ED1A1A46284602F052FBF5
:1054300098F801300BB108F10108204649460A22CC
:1054400000230026FAF7DCFE8FE60C990A9828AABA
:1054500002F072FB00287EF460AF22992A9C0DF1C5
:10546000AC08BCE6129AAE18A6EB0B06D51AAE42F3
:10547000A8BF2E46FFF78EBB0E9B089953F8042B4E
:105480000E9311805546FEF7DFBF44F3C0194B461B
:1054900064B2FEF7BFBE0C990A9828AA02F04CFB32
:1054A00000287EF43AAFDDE9293222990DF1AC08EB
:1054B0003DE700BF809E0008789E0008949E00088B
:1054C0000C990A9828AA02F037FB00287EF425AF31
:1054D0002A9C0DF1AC08FFF72ABB0623079356E47C
:1054E000DDE91235EB189E421997B346DDF82CA082
:1054F000109F90460C4628BF9B46FFF71EBB229B81
:105500001093DA1C02DB079A934204DD023E26F078
:105510002003069377E4109B129A9342C0F24881CD
:1055200019F0010F00F01182169A13440B9319F42D
:10553000806F03D0109B002B00F3C7810B9B23EAE5
:10554000E3730693672600230F931393BCE42D2285
:1055500000238DF883200793FEF786BE28AA5946BC
:10556000504602F0E9FA00287EF4D7AE38782A993E
:105570002BAA06448AE50C990A9828AA02F0DCFABC
:1055800000287EF4CAAE2A9C0DF1AC08FFF7C6BA1B
:105590000C990A9828AA02F0CFFA00287EF4BDAE32
:1055A000229B2A9C0DF1AC08FFF7DCBA0799019108
:1055B00026A9049123A9039122A9029103210B9BFF
:1055C0000A9800915A4600F0FBFA0378302B054602
:1055D00000F0F181229B079AB94613440F9FEC1803
:1055E0000B99584600220023FBF728FD10B12346F3
:1055F000FFF7FDBB269BA342BFF4F9AB30215A1C39
:1056000026921970269B9C42F9D8FFF7F0BB079BA6
:105610009DF883200E9406930B9307900F901390A0
:105620001090FEF71FBE229A1092002A40F3E081EC
:10563000079909F001030B4340F0B781109B0B93CE
:10564000662619F4806F40F041810B9B23EAE373D7
:10565000069378E730238DF8843058238DF8853011
:10566000079B632B47F0020400F3BF8000230D93D8
:105670003BADDDE9141247F481730F931346002B01
:105680002746C0F285800B9326F020030693002363
:105690008B461D93612E00F04081412E7FF485AB37
:1056A00022AA0B99584602F0CBF900224FF07F5303
:1056B000FBF75CFA02460B46CDE9102300220023DB
:1056C000FBF7BCFC08B101232293AC4B0B93079B67
:1056D000CDE912A6CDE91E78DDF82CA0DDE9106732
:1056E00003F1FF39AB46109506E00022002309F1D3
:1056F000FF39FBF7A3FCE8B9A14B0022304639463D
:10570000FBF734FA0F460646FBF7E0FC0446FBF7CE
:10571000C3F90B46024639463046FBF76FF81AF8D4
:105720000430B9F1FF3FD8464D460BF8013B064621
:105730000F46DAD130463946924BDDF848A0139E29
:10574000CDF848800022A946DDF87C80109D1E9F80
:10575000CDE91001FBF79AFC002855D1DDE91001D5
:10576000884B0022FBF76AFC08B1E1074CD44B469A
:10577000002B06DB01335B4430220BF8012B5B4529
:10578000FBD1ABEB0503B94612930F9FFFF731BB7B
:1057900026F020030693DDE914349B4604F1004310
:1057A0000B932D231D9375E700230793FEF796BCFB
:1057B000129B169A9A18109B0B92002B40F30981AA
:1057C00067263EE70C990A9828AA02F0B5F9002846
:1057D0007EF4A3AD229D129B2A9C5D1B0DF1AC08AB
:1057E000FFF7D8B9079BEC18FAE60A98591C01F0A4
:1057F000C1FA0546002800F026810D9039E73023D4
:105800008DF88430782329E7129B26930B9B1BF895
:10581000012CD97B8A425B4609D1302003F8010C68
:10582000269B5A1E269213F8012C9142F6D0392A53
:105830000BBF0B9A0132927AD2B203F8012CA0E787
:1058400007990B9B0A984C1C26A9049123A9039144
:1058500022A9029102215A460194009100F0B0F968
:105860000546B9462C440F9FBAE6454688460133A3
:105870003244072BCDE92932C8F80090C8F80460FB
:105880007FF7C2AC0C990A9828AA02F055F90028B3
:105890007EF443ADDDE929320DF1AC08B6E4079B97
:1058A000002B08BF0123079347F480730F93159BC8
:1058B000002BC0F2B180DDF850B00D900B931D901D
:1058C000FFF77ABA00230D9365E7672619990B78DD
:1058D000FF2B00F0B2800024109A204603E0013034
:1058E0000131FF2B08D0934206DAD21A4B78002BF5
:1058F000F5D10B780134F4E71991109213900F94BD
:105900000F9A139B1C9913440B9A01FB03230B93CF
:1059100023EAE3730693FFF7D7BA22AA0B995846F6
:1059200002F08EF800224FF07F53FBF71FF902467A
:105930000B46CDE9102300220023FBF77FFB08B1C3
:1059400001232293104B0B93C1E6109B0B93EEE5C2
:10595000002963D130228DF892200DF1930230336B
:1059600002F8013B24ABD31A1A93FFF796BA06F15B
:105970000F02D2B20121FFF74FBA00BF649E0008A8
:10598000000030400000E03F509E0008159B384D5D
:10599000002BB4BF2D229DF88320364BB8BF8DF865
:1059A000832027F08007FEF790BD169BD31819447B
:1059B0000B91662645E60B99584600220023FBF71B
:1059C0003DFB00287FF406AE079BC3F10103229341
:1059D00001E6C3F101031A4422EAE2730B92069333
:1059E0006726B0E519F0010F3FF462AAFFF75CBA31
:1059F000079A09F0010959EA020304D10123069329
:105A000066260B939FE5169B01331A4422EAE27344
:105A10000B920693662696E50D90BCE60DF1920278
:105A20009DE70E9B9AF80160924653F8042B0E9363
:105A300042EAE2720792FEF74FBB00230F931393E3
:105A40005EE7079C0DE70C998B8943F040021346F3
:105A50008A81FEF76ABC02231A93FFF71EBA0A9ADC
:105A60000C2313604FF0FF330893FEF765BC00BFB3
:105A7000489E00084C9E0008024B13B1024800F0FB
:105A800005B8704700000000856A00080023014641
:105A90001A46184602F0CCB82DE9F04F03690C699C
:105AA000A34283B0C0F28680013C01F11405A3003B
:105AB00000F11408009355F8243058F824200133DD
:105AC0008A469A4208EB8401814605EB84070191DE
:105AD000B2FBF3F638D30023AE4640469B465EF851
:105AE000041B02681FFA81FC06FB0C33090C4FEA09
:105AF000134C06FB01CC99B2ABEB01011FFA8CF3FE
:105B000011FA82F1C3EB124202EB214289B241EA5F
